{
  "_format": "hh-sol-artifact-1",
  "contractName": "CafeCore",
  "sourceName": "contracts/CafeCore.sol",
  "abi": [
    {
      "inputs": [
        {
          "internalType": "address",
          "name": "_owner",
          "type": "address"
        },
        {
          "internalType": "address",
          "name": "_cafeRegistry",
          "type": "address"
        }
      ],
      "stateMutability": "nonpayable",
      "type": "constructor"
    },
    {
      "inputs": [],
      "name": "CafeCore__ArraysLengthsNotSame",
      "type": "error"
    },
    {
      "inputs": [],
      "name": "CafeCore__CafeContractNotInRegistry",
      "type": "error"
    },
    {
      "inputs": [],
      "name": "CafeCore__WrongAmountOfEth",
      "type": "error"
    },
    {
      "inputs": [],
      "name": "cafeRegistry",
      "outputs": [
        {
          "internalType": "contract CafeRegistry",
          "name": "",
          "type": "address"
        }
      ],
      "stateMutability": "view",
      "type": "function"
    },
    {
      "inputs": [
        {
          "internalType": "address",
          "name": "_cafeContract",
          "type": "address"
        },
        {
          "internalType": "string[]",
          "name": "_itemsToOrder",
          "type": "string[]"
        },
        {
          "internalType": "uint256[]",
          "name": "_amounts",
          "type": "uint256[]"
        }
      ],
      "name": "executeOrder",
      "outputs": [
        {
          "internalType": "bool",
          "name": "",
          "type": "bool"
        }
      ],
      "stateMutability": "payable",
      "type": "function"
    }
  ],
  "bytecode": "0x60806040523480156200001157600080fd5b50604051620013c5380380620013c583398181016040528101906200003791906200012a565b81600160006101000a81548173ffffffffffffffffffffffffffffffffffffffff021916908373ffffffffffffffffffffffffffffffffffffffff160217905550806000806101000a81548173ffffffffffffffffffffffffffffffffffffffff021916908373ffffffffffffffffffffffffffffffffffffffff160217905550505062000171565b600080fd5b600073ffffffffffffffffffffffffffffffffffffffff82169050919050565b6000620000f282620000c5565b9050919050565b6200010481620000e5565b81146200011057600080fd5b50565b6000815190506200012481620000f9565b92915050565b60008060408385031215620001445762000143620000c0565b5b6000620001548582860162000113565b9250506020620001678582860162000113565b9150509250929050565b61124480620001816000396000f3fe6080604052600436106100295760003560e01c80631d6bc9eb1461002e578063b80e7eff14610059575b600080fd5b34801561003a57600080fd5b50610043610089565b6040516100509190610a26565b60405180910390f35b610073600480360381019061006e9190610b44565b6100ad565b6040516100809190610bf4565b60405180910390f35b60008054906101000a900473ffffffffffffffffffffffffffffffffffffffff1681565b600080151560008054906101000a900473ffffffffffffffffffffffffffffffffffffffff1673ffffffffffffffffffffffffffffffffffffffff166368a398df886040518263ffffffff1660e01b815260040161010b9190610c1e565b60206040518083038186803b15801561012357600080fd5b505afa158015610137573d6000803e3d6000fd5b505050506040513d601f19601f8201168201806040525081019061015b9190610c65565b15151415610195576040517f3d63cd4100000000000000000000000000000000000000000000000000000000815260040160405180910390fd5b60008585905090508383905081146101d9576040517f41f36ef500000000000000000000000000000000000000000000000000000000815260040160405180910390fd5b60008060005b838110156103fc578686828181106101fa576101f9610c92565b5b9050602002013560008054906101000a900473ffffffffffffffffffffffffffffffffffffffff1673ffffffffffffffffffffffffffffffffffffffff1663ca6e28ca8c8c8c8681811061025157610250610c92565b5b90506020028101906102639190610cd0565b6040518463ffffffff1660e01b815260040161028193929190610d91565b60206040518083038186803b15801561029957600080fd5b505afa1580156102ad573d6000803e3d6000fd5b505050506040513d601f19601f820116820180604052508101906102d19190610df9565b6102db9190610e55565b836102e69190610eaf565b92508686828181106102fb576102fa610c92565b5b9050602002013560008054906101000a900473ffffffffffffffffffffffffffffffffffffffff1673ffffffffffffffffffffffffffffffffffffffff1663367af7428c8c8c8681811061035257610351610c92565b5b90506020028101906103649190610cd0565b6040518463ffffffff1660e01b815260040161038293929190610d91565b60206040518083038186803b15801561039a57600080fd5b505afa1580156103ae573d6000803e3d6000fd5b505050506040513d601f19601f820116820180604052508101906103d29190610df9565b6103dc9190610e55565b826103e79190610eaf565b915080806103f490610f05565b9150506101df565b5060008060008054906101000a900473ffffffffffffffffffffffffffffffffffffffff1673ffffffffffffffffffffffffffffffffffffffff16630d4ef60e8c6040518263ffffffff1660e01b81526004016104599190610c1e565b604080518083038186803b15801561047057600080fd5b505afa158015610484573d6000803e3d6000fd5b505050506040513d601f19601f820116820180604052508101906104a89190610f4e565b915091508a73ffffffffffffffffffffffffffffffffffffffff1662fdd58e3360006040518363ffffffff1660e01b81526004016104e7929190610fc9565b60206040518083038186803b1580156104ff57600080fd5b505afa158015610513573d6000803e3d6000fd5b505050506040513d601f19601f820116820180604052508101906105379190610df9565b828c73ffffffffffffffffffffffffffffffffffffffff1662fdd58e3360016040518363ffffffff1660e01b815260040161057392919061102d565b60206040518083038186803b15801561058b57600080fd5b505afa15801561059f573d6000803e3d6000fd5b505050506040513d601f19601f820116820180604052508101906105c39190610df9565b6105cd9190610e55565b101561065f57808410156105e457600093506105f3565b80846105f09190611056565b93505b8a73ffffffffffffffffffffffffffffffffffffffff16631237e5e8336040518263ffffffff1660e01b815260040161062c9190610c1e565b600060405180830381600087803b15801561064657600080fd5b505af115801561065a573d6000803e3d6000fd5b505050505b600084146107cd5760008060009054906101000a900473ffffffffffffffffffffffffffffffffffffffff1673ffffffffffffffffffffffffffffffffffffffff16633dbdb2ee8d8e73ffffffffffffffffffffffffffffffffffffffff1662fdd58e3360026040518363ffffffff1660e01b81526004016106e29291906110c5565b60206040518083038186803b1580156106fa57600080fd5b505afa15801561070e573d6000803e3d6000fd5b505050506040513d601f19601f820116820180604052508101906107329190610df9565b6040518363ffffffff1660e01b815260040161074f9291906110fd565b60206040518083038186803b15801561076757600080fd5b505afa15801561077b573d6000803e3d6000fd5b505050506040513d601f19601f8201168201806040525081019061079f9190610df9565b905060648160646107b09190611056565b866107bb9190610e55565b6107c59190611155565b9450506107ce565b5b34841115610808576040517feca4799600000000000000000000000000000000000000000000000000000000815260040160405180910390fd5b60008060009054906101000a900473ffffffffffffffffffffffffffffffffffffffff1673ffffffffffffffffffffffffffffffffffffffff1663dc7679ab8d6040518263ffffffff1660e01b81526004016108649190610c1e565b60206040518083038186803b15801561087c57600080fd5b505afa158015610890573d6000803e3d6000fd5b505050506040513d601f19601f820116820180604052508101906108b4919061119b565b73ffffffffffffffffffffffffffffffffffffffff16856040516108d7906111f9565b60006040518083038185875af1925050503d8060008114610914576040519150601f19603f3d011682016040523d82523d6000602084013e610919565b606091505b505090508061092757600080fd5b8b73ffffffffffffffffffffffffffffffffffffffff166340c10f1933866040518363ffffffff1660e01b81526004016109629291906110fd565b600060405180830381600087803b15801561097c57600080fd5b505af1158015610990573d6000803e3d6000fd5b505050506001965050505050505095945050505050565b600073ffffffffffffffffffffffffffffffffffffffff82169050919050565b6000819050919050565b60006109ec6109e76109e2846109a7565b6109c7565b6109a7565b9050919050565b60006109fe826109d1565b9050919050565b6000610a10826109f3565b9050919050565b610a2081610a05565b82525050565b6000602082019050610a3b6000830184610a17565b92915050565b600080fd5b600080fd5b6000610a56826109a7565b9050919050565b610a6681610a4b565b8114610a7157600080fd5b50565b600081359050610a8381610a5d565b92915050565b600080fd5b600080fd5b600080fd5b60008083601f840112610aae57610aad610a89565b5b8235905067ffffffffffffffff811115610acb57610aca610a8e565b5b602083019150836020820283011115610ae757610ae6610a93565b5b9250929050565b60008083601f840112610b0457610b03610a89565b5b8235905067ffffffffffffffff811115610b2157610b20610a8e565b5b602083019150836020820283011115610b3d57610b3c610a93565b5b9250929050565b600080600080600060608688031215610b6057610b5f610a41565b5b6000610b6e88828901610a74565b955050602086013567ffffffffffffffff811115610b8f57610b8e610a46565b5b610b9b88828901610a98565b9450945050604086013567ffffffffffffffff811115610bbe57610bbd610a46565b5b610bca88828901610aee565b92509250509295509295909350565b60008115159050919050565b610bee81610bd9565b82525050565b6000602082019050610c096000830184610be5565b92915050565b610c1881610a4b565b82525050565b6000602082019050610c336000830184610c0f565b92915050565b610c4281610bd9565b8114610c4d57600080fd5b50565b600081519050610c5f81610c39565b92915050565b600060208284031215610c7b57610c7a610a41565b5b6000610c8984828501610c50565b91505092915050565b7f4e487b7100000000000000000000000000000000000000000000000000000000600052603260045260246000fd5b600080fd5b600080fd5b600080fd5b60008083356001602003843603038112610ced57610cec610cc1565b5b80840192508235915067ffffffffffffffff821115610d0f57610d0e610cc6565b5b602083019250600182023603831315610d2b57610d2a610ccb565b5b509250929050565b600082825260208201905092915050565b82818337600083830152505050565b6000601f19601f8301169050919050565b6000610d708385610d33565b9350610d7d838584610d44565b610d8683610d53565b840190509392505050565b6000604082019050610da66000830186610c0f565b8181036020830152610db9818486610d64565b9050949350505050565b6000819050919050565b610dd681610dc3565b8114610de157600080fd5b50565b600081519050610df381610dcd565b92915050565b600060208284031215610e0f57610e0e610a41565b5b6000610e1d84828501610de4565b91505092915050565b7f4e487b7100000000000000000000000000000000000000000000000000000000600052601160045260246000fd5b6000610e6082610dc3565b9150610e6b83610dc3565b9250817fffffffffffffffffffffffffffffffffffffffffffffffffffffffffffffffff0483118215151615610ea457610ea3610e26565b5b828202905092915050565b6000610eba82610dc3565b9150610ec583610dc3565b9250827fffffffffffffffffffffffffffffffffffffffffffffffffffffffffffffffff03821115610efa57610ef9610e26565b5b828201905092915050565b6000610f1082610dc3565b91507fffffffffffffffffffffffffffffffffffffffffffffffffffffffffffffffff821415610f4357610f42610e26565b5b600182019050919050565b60008060408385031215610f6557610f64610a41565b5b6000610f7385828601610de4565b9250506020610f8485828601610de4565b9150509250929050565b6000819050919050565b6000610fb3610fae610fa984610f8e565b6109c7565b610dc3565b9050919050565b610fc381610f98565b82525050565b6000604082019050610fde6000830185610c0f565b610feb6020830184610fba565b9392505050565b6000819050919050565b600061101761101261100d84610ff2565b6109c7565b610dc3565b9050919050565b61102781610ffc565b82525050565b60006040820190506110426000830185610c0f565b61104f602083018461101e565b9392505050565b600061106182610dc3565b915061106c83610dc3565b92508282101561107f5761107e610e26565b5b828203905092915050565b6000819050919050565b60006110af6110aa6110a58461108a565b6109c7565b610dc3565b9050919050565b6110bf81611094565b82525050565b60006040820190506110da6000830185610c0f565b6110e760208301846110b6565b9392505050565b6110f781610dc3565b82525050565b60006040820190506111126000830185610c0f565b61111f60208301846110ee565b9392505050565b7f4e487b7100000000000000000000000000000000000000000000000000000000600052601260045260246000fd5b600061116082610dc3565b915061116b83610dc3565b92508261117b5761117a611126565b5b828204905092915050565b60008151905061119581610a5d565b92915050565b6000602082840312156111b1576111b0610a41565b5b60006111bf84828501611186565b91505092915050565b600081905092915050565b50565b60006111e36000836111c8565b91506111ee826111d3565b600082019050919050565b6000611204826111d6565b915081905091905056fea26469706673582212202d8b66abead5025a47ebc369d4d07bc2a3ae08379b9daf4e89a5c1e8be9addf864736f6c63430008080033",
  "linkReferences": {},
  "deployedLinkReferences": {}
}